{"abi":[{"type":"constructor","inputs":[],"stateMutability":"nonpayable"},{"type":"function","name":"balances","inputs":[{"name":"","type":"address","internalType":"address"},{"name":"","type":"address","internalType":"address"}],"outputs":[{"name":"","type":"uint256","internalType":"uint256"}],"stateMutability":"view"},{"type":"function","name":"lock","inputs":[{"name":"token","type":"address","internalType":"contract IERC20"},{"name":"amount","type":"uint256","internalType":"uint256"}],"outputs":[],"stateMutability":"nonpayable"},{"type":"function","name":"owner","inputs":[],"outputs":[{"name":"","type":"address","internalType":"address"}],"stateMutability":"view"},{"type":"function","name":"unlock","inputs":[{"name":"token","type":"address","internalType":"contract IERC20"},{"name":"amount","type":"uint256","internalType":"uint256"}],"outputs":[],"stateMutability":"nonpayable"},{"type":"event","name":"Locked","inputs":[{"name":"user","type":"address","indexed":true,"internalType":"address"},{"name":"token","type":"address","indexed":true,"internalType":"address"},{"name":"amount","type":"uint256","indexed":false,"internalType":"uint256"}],"anonymous":false},{"type":"event","name":"Unlocked","inputs":[{"name":"user","type":"address","indexed":true,"internalType":"address"},{"name":"token","type":"address","indexed":true,"internalType":"address"},{"name":"amount","type":"uint256","indexed":false,"internalType":"uint256"}],"anonymous":false}],"bytecode":{"object":"0x6080604052348015600e575f5ffd5b50335f5f6101000a81548173ffffffffffffffffffffffffffffffffffffffff021916908373ffffffffffffffffffffffffffffffffffffffff1602179055506108508061005b5f395ff3fe608060405234801561000f575f5ffd5b506004361061004a575f3560e01c8063282d3fdf1461004e5780637eee288d1461006a5780638da5cb5b14610086578063c23f001f146100a4575b5f5ffd5b6100686004803603810190610063919061055d565b6100d4565b005b610084600480360381019061007f919061055d565b610249565b005b61008e610477565b60405161009b91906105aa565b60405180910390f35b6100be60048036038101906100b991906105ed565b61049b565b6040516100cb919061063a565b60405180910390f35b8173ffffffffffffffffffffffffffffffffffffffff166323b872dd3330846040518463ffffffff1660e01b815260040161011193929190610653565b6020604051808303815f875af115801561012d573d5f5f3e3d5ffd5b505050506040513d601f19601f8201168201806040525081019061015191906106bd565b508060015f3373ffffffffffffffffffffffffffffffffffffffff1673ffffffffffffffffffffffffffffffffffffffff1681526020019081526020015f205f8473ffffffffffffffffffffffffffffffffffffffff1673ffffffffffffffffffffffffffffffffffffffff1681526020019081526020015f205f8282546101d99190610715565b925050819055508173ffffffffffffffffffffffffffffffffffffffff163373ffffffffffffffffffffffffffffffffffffffff167f989eaa915cbb416ea3d6f9a63b1a3de51770c7674b11fe21ecdf76b4e1d139108360405161023d919061063a565b60405180910390a35050565b8060015f3373ffffffffffffffffffffffffffffffffffffffff1673ffffffffffffffffffffffffffffffffffffffff1681526020019081526020015f205f8473ffffffffffffffffffffffffffffffffffffffff1673ffffffffffffffffffffffffffffffffffffffff1681526020019081526020015f20541015610304576040517f08c379a00000000000000000000000000000000000000000000000000000000081526004016102fb906107a2565b60405180910390fd5b8060015f3373ffffffffffffffffffffffffffffffffffffffff1673ffffffffffffffffffffffffffffffffffffffff1681526020019081526020015f205f8473ffffffffffffffffffffffffffffffffffffffff1673ffffffffffffffffffffffffffffffffffffffff1681526020019081526020015f205f82825461038b91906107c0565b925050819055508173ffffffffffffffffffffffffffffffffffffffff1663a9059cbb33836040518363ffffffff1660e01b81526004016103cd9291906107f3565b6020604051808303815f875af11580156103e9573d5f5f3e3d5ffd5b505050506040513d601f19601f8201168201806040525081019061040d91906106bd565b508173ffffffffffffffffffffffffffffffffffffffff163373ffffffffffffffffffffffffffffffffffffffff167fe6e0ef9cd056ca98561ca60e347ada61e1ede2f1142a078951b7a52e1e508e608360405161046b919061063a565b60405180910390a35050565b5f5f9054906101000a900473ffffffffffffffffffffffffffffffffffffffff1681565b6001602052815f5260405f20602052805f5260405f205f91509150505481565b5f5ffd5b5f73ffffffffffffffffffffffffffffffffffffffff82169050919050565b5f6104e8826104bf565b9050919050565b5f6104f9826104de565b9050919050565b610509816104ef565b8114610513575f5ffd5b50565b5f8135905061052481610500565b92915050565b5f819050919050565b61053c8161052a565b8114610546575f5ffd5b50565b5f8135905061055781610533565b92915050565b5f5f60408385031215610573576105726104bb565b5b5f61058085828601610516565b925050602061059185828601610549565b9150509250929050565b6105a4816104de565b82525050565b5f6020820190506105bd5f83018461059b565b92915050565b6105cc816104de565b81146105d6575f5ffd5b50565b5f813590506105e7816105c3565b92915050565b5f5f60408385031215610603576106026104bb565b5b5f610610858286016105d9565b9250506020610621858286016105d9565b9150509250929050565b6106348161052a565b82525050565b5f60208201905061064d5f83018461062b565b92915050565b5f6060820190506106665f83018661059b565b610673602083018561059b565b610680604083018461062b565b949350505050565b5f8115159050919050565b61069c81610688565b81146106a6575f5ffd5b50565b5f815190506106b781610693565b92915050565b5f602082840312156106d2576106d16104bb565b5b5f6106df848285016106a9565b91505092915050565b7f4e487b71000000000000000000000000000000000000000000000000000000005f52601160045260245ffd5b5f61071f8261052a565b915061072a8361052a565b9250828201905080821115610742576107416106e8565b5b92915050565b5f82825260208201905092915050565b7f4e6f7420656e6f756768206c6f636b65640000000000000000000000000000005f82015250565b5f61078c601183610748565b915061079782610758565b602082019050919050565b5f6020820190508181035f8301526107b981610780565b9050919050565b5f6107ca8261052a565b91506107d58361052a565b92508282039050818111156107ed576107ec6106e8565b5b92915050565b5f6040820190506108065f83018561059b565b610813602083018461062b565b939250505056fea264697066735822122023876b29d7b6b7098f6b221d08e6a4254460981fa924cb388cf0a82b9c9d922e64736f6c634300081e0033","linkReferences":{}},"methodIdentifiers":{"balances(address,address)":"c23f001f","lock(address,uint256)":"282d3fdf","owner()":"8da5cb5b","unlock(address,uint256)":"7eee288d"},"id":27}