{"abi":[{"type":"constructor","inputs":[],"stateMutability":"nonpayable"},{"type":"function","name":"balances","inputs":[{"name":"","type":"address","internalType":"address"}],"outputs":[{"name":"","type":"uint256","internalType":"uint256"}],"stateMutability":"view"},{"type":"function","name":"burning","inputs":[{"name":"_tokenaddress","type":"address","internalType":"contract bCoin"},{"name":"_amount","type":"uint256","internalType":"uint256"}],"outputs":[],"stateMutability":"nonpayable"},{"type":"function","name":"minting","inputs":[{"name":"_tokenaddress","type":"address","internalType":"contract bCoin"},{"name":"_amount","type":"uint256","internalType":"uint256"}],"outputs":[],"stateMutability":"nonpayable"},{"type":"event","name":"Burning","inputs":[{"name":"user","type":"address","indexed":true,"internalType":"address"},{"name":"amount","type":"uint256","indexed":false,"internalType":"uint256"}],"anonymous":false},{"type":"event","name":"Minting","inputs":[{"name":"user","type":"address","indexed":true,"internalType":"address"},{"name":"amount","type":"uint256","indexed":false,"internalType":"uint256"}],"anonymous":false}],"bytecode":{"object":"0x6080604052348015600e575f5ffd5b50335f5f6101000a81548173ffffffffffffffffffffffffffffffffffffffff021916908373ffffffffffffffffffffffffffffffffffffffff1602179055506106118061005b5f395ff3fe608060405234801561000f575f5ffd5b506004361061003f575f3560e01c8063233ebc8b1461004357806327e235e31461005f578063a92b57e01461008f575b5f5ffd5b61005d600480360381019061005891906103ff565b6100ab565b005b61007960048036038101906100749190610467565b6101b8565b60405161008691906104a1565b60405180910390f35b6100a960048036038101906100a491906103ff565b6101cd565b005b8173ffffffffffffffffffffffffffffffffffffffff166340c10f1933836040518363ffffffff1660e01b81526004016100e69291906104c9565b5f604051808303815f87803b1580156100fd575f5ffd5b505af115801561010f573d5f5f3e3d5ffd5b505050508060015f3373ffffffffffffffffffffffffffffffffffffffff1673ffffffffffffffffffffffffffffffffffffffff1681526020019081526020015f205f82825461015f919061051d565b925050819055503373ffffffffffffffffffffffffffffffffffffffff167fffb74a97bad85a319684640c220f43fa5c71679297717f83b771aa0ab210c22c826040516101ac91906104a1565b60405180910390a25050565b6001602052805f5260405f205f915090505481565b808273ffffffffffffffffffffffffffffffffffffffff166370a08231336040518263ffffffff1660e01b81526004016102079190610550565b602060405180830381865afa158015610222573d5f5f3e3d5ffd5b505050506040513d601f19601f82011682018060405250810190610246919061057d565b1015610250575f5ffd5b8173ffffffffffffffffffffffffffffffffffffffff16639dc29fac33836040518363ffffffff1660e01b815260040161028b9291906104c9565b5f604051808303815f87803b1580156102a2575f5ffd5b505af11580156102b4573d5f5f3e3d5ffd5b505050508060015f3373ffffffffffffffffffffffffffffffffffffffff1673ffffffffffffffffffffffffffffffffffffffff1681526020019081526020015f205f82825461030491906105a8565b925050819055503373ffffffffffffffffffffffffffffffffffffffff167f62626c8ae1f1f3ad3b2f42ba7b806bbc48e9a59dab06414984113eaab612fe478260405161035191906104a1565b60405180910390a25050565b5f5ffd5b5f73ffffffffffffffffffffffffffffffffffffffff82169050919050565b5f61038a82610361565b9050919050565b5f61039b82610380565b9050919050565b6103ab81610391565b81146103b5575f5ffd5b50565b5f813590506103c6816103a2565b92915050565b5f819050919050565b6103de816103cc565b81146103e8575f5ffd5b50565b5f813590506103f9816103d5565b92915050565b5f5f604083850312156104155761041461035d565b5b5f610422858286016103b8565b9250506020610433858286016103eb565b9150509250929050565b61044681610380565b8114610450575f5ffd5b50565b5f813590506104618161043d565b92915050565b5f6020828403121561047c5761047b61035d565b5b5f61048984828501610453565b91505092915050565b61049b816103cc565b82525050565b5f6020820190506104b45f830184610492565b92915050565b6104c381610380565b82525050565b5f6040820190506104dc5f8301856104ba565b6104e96020830184610492565b9392505050565b7f4e487b71000000000000000000000000000000000000000000000000000000005f52601160045260245ffd5b5f610527826103cc565b9150610532836103cc565b925082820190508082111561054a576105496104f0565b5b92915050565b5f6020820190506105635f8301846104ba565b92915050565b5f81519050610577816103d5565b92915050565b5f602082840312156105925761059161035d565b5b5f61059f84828501610569565b91505092915050565b5f6105b2826103cc565b91506105bd836103cc565b92508282039050818111156105d5576105d46104f0565b5b9291505056fea26469706673582212208090a92c7d5aa8d7436beb79db5c512330ac81160cc01d5325e257d6186ec0a064736f6c634300081e0033","linkReferences":{}},"methodIdentifiers":{"balances(address)":"27e235e3","burning(address,uint256)":"a92b57e0","minting(address,uint256)":"233ebc8b"},"id":28}